S02B00006D796F2D636F72652D6170706C69636174696F6E2D5245565F442D6E6F2D636865636B73756D2E680B
S224010000000001206D22010019FF01002FFF01002FFF01002FFF01002FFF01002FFF010025
S2240100202FFF01002FFF01002FFF01002FFF01002FFF01002FFF01002FFF01002FFF010042
S224010040390702006907020099070200C90702002FFF01002FFF01002FFF01002FFF0100B6
S2240100602FFF01002FFF01002FFF01002FFF01002FFF01002FFF01002FFF01002FFF010002
S224010080DD0602002FFF01002FFF01002FFF01002FFF01002FFF01002FFF01002FFF01002C
S2240100A0890B02002FFF01002FFF01002FFF01002FFF01002FFF01002FFF0100C1FD0100CB
S2240100C0C1FD01002FFF01002FFF01002FFF01002FFF01002FFF01002FFF0100313F0100D0
S2240100E02FFF0100C1F901002FFF01002FFF01002FFF01002FFF01002FFF01002FFF0100F6
S2240101002FFF01002FFF01002FFF01002FFF01002FFF01002FFF01002FFF01002FFF010061
S2240101202FFF01002FFF0100F16501007DA401009DA40100BDA40100E9A401003DA50100CD
S2240101402FFF01002FFF01002FFF01002FFF01002FFF01002FFF01002FFF01002FFF010021
S2240101602FFF0100415D01002FFF01002FFF01002FFF01002FFF01002FFF01002FFF010091
S2140101802FFF01002FFF010001000500B20702004A
S2240101F8FFFFFFFF905307006E0000007B0D0A20202276657273696F6E223A207B0D0A2065
S224010218202020226D616A6F72223A20312C0D0A20202020226D696E6F72223A20352C0D84
S2240102380A20202020227061746368223A20313937302C0D0A20202020226861726477613B
S22001025872655F7265766973696F6E223A20320D0A20207D0D0A7D0D0A000000B2
S2240104100000000000000000000000000000000000000000000000000000000000000000C6
S2240104300000000000000000000000000000000000000000000000000000000000000000A6
S224010450000000000000000000000000000000000000000000000000000000000000000086
S224010470000000000000000000000000000000000000000000000000000000000000000066
S22401100081F0004102E000BF83F0004330B54FEA41044FEA430594EA050F08BF90EA020FF9
S2240110201FBF54EA000C55EA020C7FEA645C7FEA655C00F0E2804FEA5454D4EB5555B8BFCF
S2240110406D420CDD2C4480EA020281EA030382EA000083EA010180EA020281EA0303362D86
S22401106088BF30BD11F0004F4FEA01314FF4801C4CEA113102D0404261EB410113F0004FF0
S2240110804FEA03334CEA133302D0524263EB430394EA050F00F0A780A4F10104D5F1200E2E
S2240110A00DDB02FA0EFC22FA05F2801841F1000103FA0EF2801843FA05F359410EE0A5F176
S2240110C020050EF1200E012A03FA0EFC28BF4CF0020C43FA05F3C01851EBE37101F0004582
S2240110E007D54FF0000EDCF1000C7EEB00006EEB0101B1F5801F1BD3B1F5001F0CD34908FC
S2240111005FEA30004FEA3C0C04F101044FEA445212F5800F80F09A80BCF1004F08BF5FEADA
S224011120500C50F1000041EB045141EA050130BD5FEA4C0C404141EB010111F4801FA4F1E4
S2240111400104E9D191F0000F04BF01460020B1FA81F308BF2033A3F10B03B3F120020CDA89
S2240111600C3208DD02F1140CC2F10C0201FA0CF021FA02F10CE002F11402D8BFC2F1200C02
S22401118001FA02F120FA0CFCDCBF41EA0C019040E41AA2BF01EB0451294330BD6FEA04043C
S2240111A01F3C1CDA0C340EDC04F11404C4F1200220FA04F001FA02F340EA030021FA04F38D
S2240111C045EA030130BDC4F10C04C4F1200220FA02F001FA04F340EA0300294630BD21FAAB
S2240111E004F0294630BD94F0000F83F4801306BF81F480110134013D4EE77FEA645C18BF89
S2240112007FEA655C29D094EA050F08BF90EA020F05D054EA000C04BF1946104630BD91EAC2
S224011220030F1EBF0021002030BD5FEA545C05D14000494128BF41F0004130BD14F580041F
S2240112403CBF01F5801130BD01F0004545F0FE4141F470014FF0000030BD7FEA645C1ABF9B
S224011260194610467FEA655C1CBF0B46024650EA013406BF52EA033591EA030F41F400218A
S22401128030BD00BF90F0000F04BF0021704730B54FF4806404F132044FF000054FF00001B7
S2240112A050E700BF90F0000F04BF0021704730B54FF4806404F1320410F0004548BF404203
S2240112C04FF000013EE700BF42004FEAE2014FEA31014FEA02701FBF12F07F4393F07F4F7D
S2240112E081F06051704792F0000F14BF93F07F4F704730B54FF4607401F0004521F000411F
S22401130020E700BF50EA010208BF704730B54FF000050AE050EA010208BF704730B511F092
S224011320004502D5404261EB41014FF4806404F132045FEA915C3FF4DCAE4FF003025FEAA9
S224011340DC0C18BF03325FEADC0C18BF033202EBDC02C2F1200300FA03FC20FA02F001FAB5
S22401136003FE40EA0E0021FA02F11444C1E600BF70B54FF0FF0C4CF4E06C1CEA11541DBF20
S2240113801CEA135594EA0C0F95EA0C0F00F0DEF82C4481EA030621EA4C5123EA4C5350EA6E
S2240113A0013518BF52EA033541F4801143F4801338D0A0FB02CE4FF00005E1FB02E506F0A6
S2240113C00042E0FB03E54FF00006E1FB03569CF0000F18BF4EF0010EA4F1FF04B6F5007F07
S2240113E064F5407404D25FEA4E0E6D4146EB060642EAC62141EA55514FEAC52040EA5E509A
S2240114004FEACE2EB4F1FD0C88BFBCF5E06F1ED8BEF1004F08BF5FEA500E50F1000041EBCD
S224011420045170BD06F0004646EA010140EA020081EA0301B4EB5C04C2BFD4EB0C0541EAA0
S224011440045170BD41F480114FF0000E013C00F3AB8014F1360FDEBF002001F0004170BD30
S224011460C4F10004203C35DA0C341BDC04F11404C4F1200500FA05F320FA04F001FA05F232
S22401148040EA020001F0004221F0004110EBD37021FA04F642EB06015EEA430E08BF20EAA4
S2240114A0D37070BDC4F10C04C4F1200500FA04F320FA05F001FA04F240EA020001F00041C8
S2240114C010EBD37041F100015EEA430E08BF20EAD37070BDC4F1200500FA05F24EEA020EA8
S2240114E020FA04F301FA05F243EA020321FA04F001F0004121FA04F220EA020000EBD37025
S2240115005EEA430E08BF20EAD37070BD94F0000F0FD101F00046400041EB010111F4801F2F
S22401152008BF013CF7D041EA060195F0000F18BF704703F00046520043EB030313F4801F21
S22401154008BF013DF7D043EA0603704794EA0C0F0CEA135518BF95EA0C0F0CD050EA410607
S22401156018BF52EA4306D1D181EA030101F000414FF0000070BD50EA410606BF104619465F
S22401158052EA430619D094EA0C0F02D150EA013613D195EA0C0F05D152EA03361CBF104600
S2240115A019460AD181EA030101F0004141F0FE4141F470014FF0000070BD41F0FE4141F423
S2240115C0780170BD70B54FF0FF0C4CF4E06C1CEA11541DBF1CEA135594EA0C0F95EA0C0F7C
S2240115E000F0A7F8A4EB050481EA030E52EA03354FEA013100F088804FEA03334FF08055E8
S22401160045EA131343EA12634FEA022245EA111545EA10654FEA00260EF000419D4208BF33
S224011620964244F1FD0404F5407402D25B084FEA3202B61A65EB03055B084FEA32024FF40A
S22401164080104FF4002CB6EB020E75EB030E22BFB61A754640EA0C005B084FEA3202B6EB50
S224011660020E75EB030E22BFB61A754640EA5C005B084FEA3202B6EB020E75EB030E22BF1E
S224011680B61A754640EA9C005B084FEA3202B6EB020E75EB030E22BFB61A754640EADC008F
S2240116A055EA060E18D04FEA051545EA16754FEA06164FEAC30343EA52734FEAC2025FEA50
S2240116C01C1CC0D111F4801F0BD141EA00014FF000004FF0004CB6E711F4801F04BF01437D
S2240116E00020B4F1FD0C88BFBCF5E06F3FF6AFAEB5EB030C04BFB6EB020C5FEA500C50F136
S224011700000041EB045170BD0EF0004E4EEA113114EB5C04C2BFD4EB0C0541EA045170BDF2
S22401172041F480114FF0000E013C90E645EA060E8DE60CEA135594EA0C0F08BF95EA0C0FCF
S2240117403FF43BAF94EA0C0F0AD150EA01347FF434AF95EA0C0F7FF425AF104619462CE784
S22401176095EA0C0F06D152EA03353FF4FDAE1046194622E750EA410618BF52EA43067FF492
S224011780C5AE50EA41047FF40DAF52EA43057FF4EBAE12E74FF0FF3C06E000BF4FF0010C2E
S2240117A002E000BF4FF0010C4DF804CD4FEA410C7FEA6C5C4FEA430C18BF7FEA6C5C1BD0EE
S2240117C001B050EA410C0CBF52EA430C91EA030F02BF90EA020F0020704710F1000F91EA3A
S2240117E0030F58BF994208BF90422CBFD8176FEAE37040F0010070474FEA410C7FEA6C5C21
S22401180002D150EA013C07D14FEA430C7FEA6C5CD6D152EA033CD3D05DF8040B704700BF48
S2240118208446104662468C461946634600E000BF01B5FFF7B7FF002848BF10F1000F01BD02
S2240118404DF808EDFFF7F4FF0CBF012000205DF808FB00BF4DF808EDFFF7EAFF34BF01200F
S22401186000205DF808FB00BF4DF808EDFFF7E0FF94BF012000205DF808FB00BF4DF808ED37
S224011880FFF7CEFF94BF012000205DF808FB00BF4DF808EDFFF7C4FF34BF012000205DF858
S2240118A008FB00BF4FEA410212F5001215D211D56FF47873B3EB625212D94FEAC12343F023
S2240118C0004343EA505311F0004F23FA02F018BF404270474FF00000704750EA013005D149
S2240118E011F0004008BF6FF0004070474FF00000704700BF4FEA4102B2F1E04324BFB3F502
S224011900001CDCF1FE5C0DD901F0004C4FEAC0024CEA5070B2F1004F40EB830008BF20F0F3
S2240119200100704711F0804F21D113F13872BCBF01F00040704741F480114FEA5252C2F1C0
S2240119401802C2F1200C10FA0CF320FA02F018BF40F001004FEAC1234FEAD32303FA0CFC1A
S22401196040EA0C0023FA02F34FEA4303CCE77FEA625307D150EA01331EBF4FF0FE4040F4F5
S2240119804000704701F0004040F0FE4040F40000704700BF80F0004002E000BF81F00041FE
S2240119A042001FBF5FEA410392EA030F7FEA226C7FEA236C6AD04FEA1262D2EB1363C1BF5D
S2240119C0D218414048404140B8BF5B42192B88BF704710F0004F40F4000020F07F4018BF0E
S2240119E0404211F0004F41F4000121F07F4118BF494292EA030F3FD0A2F1010241FA03FC39
S224011A0010EB0C00C3F1200301FA03F100F0004302D5494260EB4000B0F5000F13D3B0F198
S224011A20807F06D340084FEA310102F10102FE2A51D2B1F1004F40EBC25008BF20F00100CE
S224011A4040EA03007047490040EB000010F4000FA2F10102EDD1B0FA80FCACF1080CB2EB4D
S224011A600C0200FA0CF0AABF00EBC25052421843BCBFD0401843704792F0000F81F4000163
S224011A8006BF80F400000132013BB5E74FEA41037FEA226C18BF7FEA236C21D092EA030F3A
S224011AA004D092F0000F08BF0846704790EA010F1CBF0020704712F07F4F04D1400028BFE7
S224011AC040F00040704712F100723CBF00F50000704700F0004343F0FE4040F4000070472E
S224011AE07FEA226216BF08467FEA23630146420206BF5FEA412390EA010F40F480007047EF
S224011B004FF0000304E000BF10F0004348BF40425FEA000C08BF704743F0964301464FF0A9
S224011B2000001CE050EA010208BF70474FF000030AE000BF50EA010208BF704711F00043FE
S224011B4002D5404261EB41015FEA010C02BF84460146002043F0B64308BFA3F18053A3F55E
S224011B600003BCFA8CF2083AA3EBC25310DB01FA02FC634400FA02FCC2F12002BCF1004FEF
S224011B8020FA02F243EB020008BF20F00100704702F1200201FA02FCC2F1200250EA4C0009
S224011BA021FA02F243EB020008BF20EADC70704773B96AB9002908BF0028BCBF00204FF0CB
S224011BC00041C4BF6FF000414FF0FF3000F08AB882B0EC462DE9005000F058F8DDF804E038
S224011BE002B00CBC704700BF4BB942B9002908BF002802D04FF0FF31084600F073B882B0FC
S224011C00EC462DE9005000F057F8DDF804E002B00CBC704707EE900AF5EEC07AF1EE10FA68
S224011C2008B503D4BDE8084000F00CB8B1EE670A10EE100A00F006F8424261EB41031046E9
S224011C40194608BD70B5FFF73FFB00230022C3F6F05304460D46FFF78BFB00F045F8064632
S224011C60FFF710FB00230022C4F2F013FFF780FB02460B4620462946FFF7C6F900F034F8AF
S224011C80002202431046314670BD00BFF8B5164604460D461F4600F047F806FB01F300FBF4
S224011CA00737A6FB0023FB18A21A65EB0303069CC4E90023F8BD00BFF8B5164604460D466B
S224011CC01F4600F08FF900FB07F7A0FB062306FB0177FB18A21A65EB0303069CC4E9002354
S224011CE0F8BD00BF704700BF4A0011D212F5001211D20DD56FF47873B3EB62520ED44FEA2E
S224011D00C12343F0004343EA505323FA02F070474FF00000704750EA013002D14FF0FF302B
S224011D2070474FF00000704700292DE9F00F1D46C0F29D800024002DC0F2948080460F464E
S224011D4094461E46E3BB8A4255D9B2FA82F747B1C7F1200520FA05F601FA07F1BA40314337
S224011D60B840170CB1FBF7F6030C1FFA82FC07FB16110CFB06F543EA01439D4208D9711E18
S224011D809B1880F013819D4240F21081023E9B18591BB1FBF7F507FB151380B20CFB05FC81
S224011DA040EA03418C4507D96B1E8A1880F00081944540F2FD80023D45EA0641002503E09D
S224011DC08B420CD9002529460A462B4614B1524263EB430310461946BDE8F00F7047B3FA4C
S224011DE083F5002D40F087808B4201D38242EAD800250121E8E712B90126B6FBF2F2B2FA91
S224011E0082F6002E39D18E1A130C1FFA82FC0125B6FBF3F703FB17614FEA10490CFB07F8DF
S224011E2049EA0146B04506D9791EB61802D2B04500F2D3800F46C8EB0606B6FBF3F103FB34
S224011E40116380B20CFB01FC40EA03439C4506D94E1E9A1802D2944500F2C280314641EA01
S224011E600741B1E7E443524263EB430366E7404261EB41014FF0FF345DE7B240C6F1200948
S224011E8021FA09F720FA09F5130C01FA06F1B7FBF3F845EA01091FFA82FC03FB18774FEAC5
S224011EA019410CFB08F541EA0747B040BD420AD9BF1808F1FF3680F08E80BD4240F28B80B4
S224011EC0A8F10208BF18791BB1FBF3F503FB15171FFA89F90CFB05F649EA07418E4206D969
S224011EE06F1E891871D28E426FD9023D89188E1B45EA08458CE7C5F1200122FA01F306FAF4
S224011F0005F61E4327FA01F24FEA164907FA05F720FA01F1B2FBF9F80F433B0C1FFA86FADA
S224011F2009FB18220AFB08FB43EA024293450CFA05FC08D9921908F1FF314AD2934548D93B
S224011F40A8F102089219CBEB0203B3FBF9F109FB1132BFB20AFB01FA47EA02439A4506D9EE
S224011F604A1E9B1933D29A4531D902399B1941EA08410F0C1FFA8CF808FB07F68AB24FEAC1
S224011F801C4C08FB02F80CFB026202EB18420CFB07FC964288BF0CF5803CCAEB03030CEB8C
S224011FA0124C63450ED305D000250DE70E46EFE61D4601E71FFA88F800FA05F008EB024510
S224011FC0A842F1D201390025FEE63D468FE71146CDE78846B7E7B04675E7023FB6182AE729
S224011FE002393CE72DE9F007144605460E46002B3DD18A4249D9B2FA82F747B1C7F120015A
S22401200020FA01F206FA07F6BC401643BD40220CB6FBF2F02F0CA1B202FB106601FB00F3AD
S22401202047EA0646B34208D9471E361980F0F880B34240F2F58002383619F61AB6FBF2F3E0
S22401204002FB1362ADB201FB03F145EA0242914207D95E1E121980F0E580914240F2E280B0
S224012060023B43EA00400021BDE8F00770478B4243D8B3FA83F4002C42D18B4202D382428B
S22401208000F2DF8000210120EEE712B90127B7FBF2F4B4FA84F2002A40F088800A1B230C6D
S2240120A0A7B20121B2FBF3F603FB16224FEA154C07FB06F04CEA0242904207D9121906F1F3
S2240120C0FF3C02D2904200F2CE806646121AB2FBF3F003FB1023ADB207FB00F745EA034373
S2240120E09F4207D9421E1B1980F09E809F4240F29B80023840EA0640B6E700210846B3E779
S224012100C4F1200622FA06F503FA04F32B434FEA134C21FA06F501FA04F120FA06F6B5FB01
S224012120FCF746EA010A1FFA83F80CFB17554FEA1A4108FB07F941EA0545A94502FA04F278
S22401214003D97E1EED187FD33746C9EB0501B1FBFCF60CFB16151FFA8AFA08FB06F84AEAD1
S2240121600541884503D9751EC91873D32E4646EA0746370C1FFA82FC0CFB07F5120CB3B25F
S2240121800CFB03FC02FB035303EB1C4302FB07F29D4288BF02F58032C8EB010102EB1342D7
S2240121A091424BD342D0304600215DE79440C2F1200521FA05F6230C20FA05F701FA02F146
S2240121C0B6FBF3FC39430D0CA7B203FB1C6645EA064607FB0CF8B04500FA02F508D9361954
S2240121E00CF1FF303DD2B0453BD9ACF1020C3619C8EB0602B2FBF3F003FB10268AB242EAB4
S224012200064207FB00F1914206D9461E121926D2914224D902381219521A40EA0C4141E704
S22401222038460AE733461CE7104663E71FFA8CFC00FA04F00CEB03439842B4D2701E002132
S22401224012E7214620460FE7A9457FF67DAF023FED187AE7884589D9023EC91887E7304652
S224012260DAE78446C4E7023E12192FE719F05EF90DF0D8FE09480A4A0021121A14F002FA7C
S22401228019F030F919F064F919F0CAF819F06EF9044900200EF07CFF14F0A6F97003FF1F4B
S2240122A01CC100207003FF1FFEE70000044B054964221A70044A002008701070704700BF1C
S2240122C08A03FF1F7903FF1F7803FF1F034B187003480268511C0160704700BF8B03FF1F9F
S2240122E07403FF1F70B5002213464BB1581E22490D5CCC5CA54203D2CD540C54C3B2F4E7A8
S2240123000132D2B2102AEFD11B4B1878002102460C460123184D6D186D78A84205D1CEB222
S2240123200E2E02D0581CC3B209E0A34204D805D190421C4601D801E01C4602460123013132
S2240123400F2901D02846E5E70C4B1868824201D3421ED2B20A490B7893420A4B08D1197877
S224012360481CC1B20729197005D9074B1A7070BD002018700A7070BD7A03FF1F44B60200FA
S2240123808C03FF1F7903FF1F8A03FF1F38B5194B18680F282BD9184A18491378087818490A
S2240123A0C8540133D8B20F2810701BD9154D164CFFF798FF2A7801211120A21800F03EFB69
S2240123C02978635C052B01D8022004E00F2B01D8012000E0002003F04FF8074A0020107029
S2240123E0012000E00020034B0021196038BD002038BD00BF7403FF1F7803FF1F8B03FF1F2B
S2240124007A03FF1F8A03FF1FDCB5020070B5194D194A2E6830237343D6F1010638BF002665
S2240124202E60C025D554D418002501238D4212D0425DC02A03F1010604D1DB22E25433460F
S224012440DC2204E0DB2A02D1E2543346DD22E25401350133EAE7C020E0545D1C0749AAB264
S224012460486821460DF0F0FB082801D130BFF5E770BD00BF3C05FF1F4B08FF1F28930020F3
S2240124801D4B1A6810B58AB91C490868002831D01B4C0A6020781B4C012804D902201A49EB
S2240124A0226803F029F90023236020E0174801684B00202B1DDC1648164A0168136829B1FE
S2240124C0154A172101FB0320FFF7A0FF0A4B1868411E19600F4B1A68501C1F2801D818601E
S2240124E001E01F3A1A6009490B685A1C0A60012010BD002010BD00BF3008FF1F3005FF1F3A
S224012500EE00FF1F9003FF1F48B602002C08FF1F2805FF1F2C05FF1F4C05FF1F38B54D4B18
S2240125201A78012A0CD003D3022A40F08A8014E049490A78022A40F084800120187080E04F
S22401254045490A78032A7CD102201870434A444B002111601960434A72E04148424B0268BB
S224012560172101FB02313C4B1878DB2802D101203C494CE01A78C02A4BD1384A1368002B6F
S2240125805FD0162B03D80020C8540133F9E71360334A1368344A17204343D118D05C0A28AD
S2240125A003D1324B324A196804E0D05C0C2803D14978304A116028E0C8780D2814D14878E1
S2240125C0192811D1D35C062B0ED12B4C0A79236841F61060D518854217D828480531C01846
S2240125E014F02FF8256010E01D490A68501C1028086001D100230B60214A096810688142DA
S22401260003D12048204902F0C9FF14490020086017E0144A106858B11878DC2801D1C02054
S22401262003E01878DD2801D1DB201870002313600A4A1368162B04D807480078C854591CED
S22401264011601249486804490122BDE838400DF0CBBA00BF3B05FF1F3405FF1F2405FF1F2E
S2240126604005FF1F2005FF1F9403FF1F74B900204405FF1F2C08FF1F64B90020549B0020A7
S2240126804805FF1FA4180300781A03002893002038B50378092B05460A4607D0154A1368B2
S2240126A0002B25D0BDE83840FFF7B0BE1248134B04681F2C01D901211960186820B1104BE3
S2240126C01868411C196038BD0E4B196863181F2B0D4988BF203B172000FB0310294613F05B
S2240126E0B0FF054A01341460BDE83840FFF7C8BE38BD00BF2805FF1F3008FF1F3005FF1FEC
S2240127009003FF1F2C05FF1F4C05FF1FF0B587B003F08AFF14220446002101A813F0B2FFEE
S224012720294B186899880190ADF8081001F074FC94F82050027894F82140FF2A14BF174613
S2240127400027FF2D01D0FF2C01D100242546002000F0D8FF1D4B8DF80C5059881E789A88FA
S2240127601B4BADF812104FF0070C83F800C04FF0150C003083F801C04FF0140C83F802C031
S22401278018BF01204FF0050CADF80AC08DF80D408DF80E008DF810708DF81160ADF8142043
S2240127A001A9033305AD0C4603CC596018600833AC422146F7D1226805481A60172107B097
S2240127C0BDE8F040FFF764BF3505FF1F6CB90020AB08FF1F10B50C4C60680DF073FA606880
S2240127E00DF0A2FA09480A4B0A49002404600A200C601C6003F074FF074801212246BDE8C3
S224012800104007F033BD00BF289300201C05FF1F2805FF1F3008FF1F68F106002C4A2D48B7
S2240128202D49406810B500232C4C1360012223700DF0DAF92A48012107F002FD21780129CE
S22401284001D030BFFAE7274B1960FFF75FFF26480346032203F8012B244A11685268C0F836
S224012860011017215A60FFF713FF03F0DDFE01461F480A2303700A780130FF2A08BF1D4922
S224012880162213F00CFF1A481721FFF701FF1A48022101701721FFF7FBFE10480378022B3F
S2240128A001D030BFF9E701F0B3FB0278FF2A02D0002002F0DBFE1148114B002101601A68BA
S2240128C0104907480A60BDE8104007F06BBC00BF64B90020289300203405FF1F3B05FF1F41
S2240128E068F106002805FF1F3408FF1F88010100C208FF1F84B602000405FF1F4805FF1F8E
S22401290074B900204405FF1F08B5FFF763FF022003F0E6FEBDE80840FFF780BF38B5394B5C
S224012920186840B13849394B0A681868111AC82901D90DF0E3FAFFF7A3FD354A354913684B
S2240129400A6893425DD0172433486343C418C35C591E0A2941D8DFE801F0384040060F124C
S224012960194025402F0000F005FD2C482C4B0121002201601A603CE000F006FD25E062787A
S224012980192A36D1E01C00F07BFD32E000256019437873B340782349013513F0E3FC172D72
S2240129A0F5D126E02046204B50F8012F81881A60998000F0F5F81CE003F03CFE611C20229B
S2240129C013F06DFE03F050FE13E0FFF79DFF1348134A00210160116012E0144B197819B166
S2240129E00120134902F088FE12481349C82202F043FE07480268531C102B08BF0023036059
S224012A00012038BD2805FF1F74B900204405FF1F4805FF1F4005FF1F9403FF1F1C05FF1FD9
S224012A203008FF1FBC02FF1F3505FF1FEE00FF1F88B60200A4180300781A03007FB50B46E1
S224012A4008218DF800108DF8010011460DF103001A468DF8023013F0F4FD68461721FFF7ED
S224012A6017FE07B000BD00007FB50B460A49096881B109218DF800108DF8010011460DF1B2
S224012A8003001A468DF8023013F0DBFD68461721FFF7FEFD07B000BD1C05FF1FF0B5224B9F
S224012AA01D68854289B0044609D92D1A1F481C600268AE18202E88BF203E066000E00025A7
S224012AC01A4F3B680BB1591E00E01F21164839600268561C066014260021324603A813F0D7
S224012AE0D1FD01238DF81F30009523461321104A104C03A813F090FC3D68172169436318E4
S224012B0009203822605407AD5A709E7003A903330C4603CC596018600833AC422146F7D160
S224012B202068186009B0F0BD3008FF1F2C05FF1FB5B602004C05FF1F10B500200CF098FF30
S224012B401348144C07F064FB01212060104807F039FB23684BB101210F4807F033FB0E48BE
S224012B600021BDE8104007F06BBB0C4807F050FB044658B90121084807F024FB06482146EE
S224012B8007F05EFBBDE810400DF0B8B910BD00BF70F106006009FF1F24F106009CF1060054
S224012BA030B5304B0446186885B0002858D02E4DE8690EF045FB012002F092FDFFF70AFEB6
S224012BC0C82003F08DFD686801210DF0D1F827492748002240F2B2734A7300932549012299
S224012BE0052313F025FC05461F4821494068AAB20DF02AF8082801D130BFF5E7E178627943
S224012C0023790091A078019061781B48029124781A49039413F00CFC0446134A16495068AA
S224012C20A2B20DF011F8082801D130BFF5E71448144913F02DFD0C4B1149586810220DF0E1
S224012C4003F8082801D130BFF5E70F48014602F0A5FC01F0A3FF05B0BDE8304002F07CBAF0
S224012C6005B030BD6009FF1F2893002000A00640F908FF1FC5B602002009FF1FDCB60200ED
S224012C804009FF1F00B70200441A0300014B1868704700BF6009FF1F014B01221A60704744
S224012CA01C09FF1F38B5194B186870B31848006858B302F065F810EE100AFEF705FB024660
S224012CC00B461448144913F0B3FB0546134C11496068AAB20CF0B8FF082801D130BFF5E78B
S224012CE0C82003F0FDFC002160680DF041F801F059FFFFF793FD00F003FA0948094902F08A
S224012D004DFC024900220A60012038BD6009FF1F1C09FF1FD908FF1F11B702002893002009
S224012D20781A03008418030010B5C3B28A18000A914213D0B0F1004F0BD9040C14FA80F05B
S224012D401C0C14FA83F3040A54FA80F01C0A54FA83F311F8014B1B19C018E9E7FF2803D9D7
S224012D60010A51FA80F0F9E7FF2B03D91A0A52FA83F3F9E743EA002080B210BD03460A46F6
S224012D804FF6FF701946FFF7CFBF10B54FF6FF7341181A4688420CD0002B05DA1C0C14FA7B
S224012DA083F3140C14FA82F210F8014B12199B18F0E74FF6FF718B4203D9190C11FA83F3E8
S224012DC0F7E78A4203D9100C10FA82F2F9E742EA034010BD0F4B10B51C68631C18D004F5AE
S224012DE000242088012805D010D34FF6FF72904209D10DE0616801F50020A168FFF7C5FF2F
S224012E00E368984204D160882418EAE7012010BD002010BDFC010900704708B503F004FC75
S224012E2090F82030012B05D190F82100BDE8084000F068BC002008BD01F0ECBB082807B59F
S224012E40124B10D1196809B964221A601B680F480E4A191DFF2988BFFF21016011781420D6
S224012E6007F07CFB10E0002205281A600CD101200092ADF8042006218DF801006A4623202C
S224012E808DF80010FFF7F0FD0EBD00BF7C09FF1F054BFF2200201A705A704FF6FF72588014
S224012EA0DA801871704700BF6409FF1F08B51C4B1C480021196006F043FE08B101F0B0F87D
S224012EC002210022174806F02CFE16481649002206F071FE13481549002206F073FE114849
S224012EE01349002206F075FE0E481249002206F077FE0C481049002206F079FE09480F49C2
S224012F00002206F07BFEFFF7C3FF0D4A0D48116853680D4A016043600020106008BD00BF13
S224012F2078BFFF1F8409FF1F6D30010011320100392E01003D3001003D2E0100192E01001F
S224012F406409FF1F7009FF1F8009FF1F30B587B003F0E8FA00286AD1364A374B1088198813
S224012F60884203D154885D88AC422BD01B7832480022FF2B0092ADF8042003D102208DF8D4
S224012F80000012E0447845888DF8013001218DF800108DF80240ADF8045001F055FB00281A
S224012FA00CBF012202228DF80320234C06216A462320FFF759FD1F4B217865786288197029
S224012FC05D705A801C4D1B4C28792179D0F1010338BF0023002914BF1A4683F0010282B155
S224012FE0002006AA83420CBF042305230290ADF80C0002F8103D23200621FFF735FD2D795A
S22401300025710D4D0B4CE988E2888A420FD000200490ADF814000323ADF81110232006211A
S22401302004AA8DF81030FFF71FFDE988E18007B030BD00BF6409FF1F7009FF1F03280ED0A5
S22401304004D801280BD007D8002008E0052806D004D34FF6FF7002E0022000E00420024BC0
S224013060D880FFF773BF00BF7009FF1F08B51E4B002202282DED028B1A609CBF1B4B1A5CAA
S2240130801B4888BFFF2202290270024698BF1948B5EEC00A94BF405CFF20F1EE10FAB0EEC0
S2240130A0408A507006D4DFED147AB4EEE70AF1EE10FA01DD00F0B4FF9FED100A68EE000A49
S2240130C00B4BBCEEE08A18EE101A598001F0BCFA00280CBF0120022003F0C4F9BDEC028BB4
S2240130E0BDE80840FFF732BF7C09FF1F27B702007009FF1F2AB70200DB0FC94000007A4448
S224013100124B10B501221C681A6000F0BDFF08B901F028F800F018FE08B900F053FD01F0F0
S2240131200FFE08B901F03AFD74B9FFF776FE02210246074806F0F5FCFFF7AAFE054B06481F
S22401314019685A680160426010BD00BF78BFFF1F8409FF1F6409FF1F7009FF1F014B1868A9
S224013160704700BF78BFFF1F08B5FFF756FE01460248BDE8084006F0C5BC00BF8409FF1F18
S22401318010B5094C2378FF2B0DD0217929B120B94FF49670962107F0E1F900202071BDE8F9
S2240131A01040FFF7D3BE10BD7009FF1F38B5134B1A78FF2A044620D018B9BDE83840FFF7AA
S2240131C0DFBF1D795DB99620FF2107F0C7F97820294607F0C3F93220FF2107F0BFF90849E6
S2240131E006480A68074B047107481A600168074A1160BDE83840FFF7A9BE38BD7009FF1F48
S22401320074B900208009FF1F7809FF1F6C09FF1F08B503F07FF970B10120FFF7B1FF064B21
S224013220FF2200201A705A70588003F01BF9BDE80840FFF78BBE08BD7009FF1F024B00201F
S2240132401860FFF7E5BF00BF78BFFF1F134B70B50646187901280D4614460CD11049114B7A
S2240132600A681868111A0A225143B1F5FA6F02D30020FFF785FF0C4B186868B131462A4616
S2240132800A48E3B206F034FD04490A78FF2A03D0BDE8704003F064B870BD00BF7009FF1F68
S2240132A074B900208009FF1F78BFFF1F8409FF1F034B1B6801460A2202485A4306F0C6BC71
S2240132C074B900208409FF1F0146014806F0FCBC8409FF1F1FB5044604F01CFD174B184A18
S2240132E01979012982ED000A15D1164892ED007AD0ED007A5A7837EE670A012ADFED120AA4
S22401330008BFB1EE400AB4EEE00AF1EE10FA02D80020FFF735FF204604F0E2FC084B196852
S224013320204602918DED010A04F004FD074801A98DED030A06F0C9FC1FBD00BF7009FF1FA7
S2240133407809FF1F6C09FF1FC7B832BE8409FF1F10B5044603F0DEF840B107F05BF928B926
S22401336003482146BDE8104006F0B1BC10BD00BF8409FF1F08B503F0C1F8012002F076F91B
S224013380BDE80840FFF784BD08B5FFF7B9FE0020FFF7F6FE002000F0E5FE002001F0ECFCA3
S2240133A0002000F0EBFC002003F052F80020BDE8084002F05BB9F8B58578012D04460BD0A3
S2240133C0042D0CD0691F4E424E415EB907797A1E504250EB020706E02E462F4603E0012655
S2240133E0374600E0012703F08FF82379012B02D1FFF786FE01E0FFF721FFA078B4F80510E3
S22401340000F0A8FCE078B4F80910E27A01F09EFC47B16A1F514251413046E279237A00F00A
S22401342039FE01E000F0A4FEBDE8F840FFF78EBD1FB50378417882788DF80430C37800794F
S2240134408DF805108DF8080002998DF806201420C8228DF80C0062F31721029103998DF809
S2240134600730322264238DF80B3062F31721002301A803918DF80F30FFF79DFF05B000BDBF
S22401348070B503780446581E182800F2C880DFE810F019001E00500074002D0037006700BF
S2240134A0280023007B0080008600C6009400C600A900B500BA00C100C100C100C100C1003D
S2240134C0C100C1002046BDE87040FFF7B1BF2046BDE87040FFF76FBFA078BDE8704002F005
S2240134E0B7BFA078BDE8704002F000B901F082FE002800F094804A4841F2883201460FE0E6
S22401350000F082FD0023E2189178C1540133092BF9D100F047FD38B141484FF4FA6201463D
S224013520BDE8704002F0A8B83E483F494FF47A72F6E7A078022805D003280ED001286ED13C
S224013540C82001E04FF42F70FF2107F007F864200021BDE8704007F001B84FF49660F3E7E7
S2240135600025032000FB0541488810B1097906F0F5FF0135062DF4D170BD2C4801210022AC
S224013580BDE8704006F072BEA078BDE87040FFF70DBEA378002B42D178200146D9E703F091
S2240135A049F8A17880F82010E27880F8212003F05BF8BDE87040FFF7D7BD1D48B4F8032097
S2240135C003689A4208D1A07800F054F8002826D000201849A2780DE017490020BDE87040F6
S2240135E002F08AB8154A1378012B18D91449D4F802200220BDE8704002F07EB86088BDE813
S2240136007040FFF74BBA00F007FDA178017000F0C9FC6DE72046BDE8704002F031BC70BDAB
S22401362034190300EC180300C418030038F1060064B900202DB7020050B70200EE00FF1FE7
S2240136408BB70200084B07B5410302461868431A06498B4206D2803900910020044902F00B
S2240136604BF8002318460EBD94F00600F853070095B7020038B51C4B1C4D044618780228CA
S22401368005D903201A492B68224602F035F80021296014B9174A146803E02046FFF7D2FF42
S2240136A00446B4B12046022101F018F80E4D30B1287870B10120104902F01EF809E02046FD
S2240136C00E4941F6106200F0DDFF04460028EFD101E0012038BD2B78012B03D902200849D1
S2240136E002F00AF8204638BDEE00FF1F64B90020C9B70200BCF0060004B80200549B00202B
S2240137002AB8020008B510B9074B186801E0FFF799FF0021425CFF2A05D1013141F610635E
S2240137209942F7D1002008BDBCF0060008B51E4B1878022803D903201C4901F0DDFF002018
S2240137401B494FF4B14200F0F7FF08B117490FE015490A78022A03D90320164901F0CCFFB5
S224013760154B93E80300090300F0EEFF18B1114902F012F815E00C480178022905D903206F
S2240137800E494FF4803201F0B7FF4FF480304FF4E02100F0D9FF30B108494FF4803201F019
S2240137A0FBFF012008BD08BDEE00FF1FC61003004AB80200ED100300A4F0060018110300AF
S2240137C0022808B504D003280CD1FFF7AFFF04E0054B93E8030000F081FFD0F1010038BFA1
S2240137E0002008BD012008BDACF006002DE9F0418AB002F0A7FE38B97B4B0FCB06AC84E88F
S2240138000F00204602F0ACFE02F09CFE0546C068764910F0010F0A7828D0012A03D9022020
S224013820734901F069FF734C7348744901F0B6FE14F8073C591E484248410BF003F895E845
S2240138400F0006AC84E80F00099A204622F00103099302F085FE65490878012803D90220A1
S224013860674901F049FF0CF049FB05E0022A03D90320644901F040FF634A6448116845F61F
S2240138807C0212F0CDFE594B10F0FF0F197800F0A180012903D902205D4901F02DFF5D4DEE
S2240138A05D4CE8695D4D0DF0CBFC5348534901F075FE0DF116000DF11702009001922B681E
S2240138C0246802935648214608220DF1150306F037FC002840F0848044489DF81510027837
S2240138E0002936D1022A04D903204E49224601F003FF0DF116060DF11705484F009601957D
S224013900386821460290012245480DF1150306F017FC8046002863D19DF81520032A5FD1F0
S224013920FFF704FF024610B140463F4921E0009601953B683A480293214604220DF11503E7
S22401394006F0FEFB00284BD19DF81510042947D135E0022A03D90320344901F0CDFE344A38
S2240139602F482B68214606F076FB024620B13149002001F0C1FE33E01C4B1978022903D9F4
S22401398003202D4901F0B8FE0DF116000DF11702224B0090019219682148029108220DF181
S2240139A01503214606F0CCFB9DF81520034608B9042A04D00020214901F09EFE10E00B4895
S2240139C00278012A03D902201D4901F095FE0CF095FA05E0022903D903201A4901F08CFEDC
S2240139E00AB0BDE8F08100BF70B50200EE00FF1F4F1103000002010064180300781A030085
S224013A006211030084110300B4F006004AB8020096110300289300208CF0060068B900209C
S224013A20A800FF1FB0110300E311030010120300C1370100241203004912030065120300D0
S224013A40B0120300D9120300094B1A68501C18601968CB05D80D0749074B122202FB0010DA
S224013A6003F5815203F580511061044808607047C4E3FF1F98BFFF1F00800040F2120300CF
S224013A8008B5444B0122B0F57A7F1A6003D8092898BF0A2001E04FF47A70B0F5FA7F3E4959
S224013AA03E4B94BF002201220A603D4A10600020186001F08BFE3B490A78032A4BD0C82135
S224013AC04FF47A7001F01EFF3C21B1EE040A4FF47A7001F0A3FE3221B1EE040A4FF47A70AF
S224013AE001F09CFE7821B1EE040A4FF47A7001F095FE6421B1EE040A4FF47A7001F08EFE62
S224013B00B421B1EE040A4FF47A7001F087FE9621B1EE040A4FF47A7001F080FEF021B1EECA
S224013B20040A4FF47A7001F079FEC821B1EE040A4FF47A7001F072FE4FF49671B1EE040AC1
S224013B404FF47A7001F06AFE4FF47A70FA21B1EE040A01F063FE1448144B0168144A196097
S224013B601449154B002010600860042018620121124806F065FB0DF0A9FA11492E224A6026
S224013B80086840F001030B600A6842F48030086008BD00BF80BFFF1F90BFFF1F84BFFF1FA1
S224013BA088BFFF1FC8E3FF1FC4E3FF1F94BFFF1F7CBFFF1F8CBFFF1F00B0034070F106007F
S224013BC000600340C820FFF75BBF00000F4A104808B50023136003700E4BD9694A0204D50D
S224013BE00D4A106820F080011160DA6922F48000D8610021094806F023FB094B094A01218D
S224013C00196210680849086008BD00BF80BFFF1FC8E3FF1F208004400060034070F106005A
S224013C2000B00340C4E3FF1F94BFFF1F70B53C4C3C49E06888B00CF0BFFB3A49E0680CF026
S224013C40E7FB3949E0680CF0B7FBE06836490CF0DFFB364B01221A62FFF718F8002859D1EF
S224013C6000F0D6F90078FF284BD1FFF7ABFF30490E682F4C256806F16402954204D2284CAF
S224013C80E0690DF011FBF4E72A4B6846002120221C6812F0F7FC00252548016806F16E0290
S224013CA091421DD223490A68A24214D00023E005C10D092202FB01301F4931F8102090B264
S224013CC020B95DF823104A1C4DF823200133082BEDD1013501341248C0690DF0E5FADBE7DE
S224013CE06D1000235DF80300A84208DC0433202BF8D100F08DF90021017000F053F9FFF773
S224013D0065FF00F085F90278FF2A03D10B480C4901F044FC0B4B0120186008B070BD00BFE8
S224013D20289300205400FF1F0000FF1F00B0034074B90020C4E3FF1F98BFFF1F5419030028
S224013D40781A0300C0E3FF1F014B1868704700BF80BFFF1F084A10B50C46107020B1204648
S224013D60BDE81040FFF78CBEFFF7F8F90028F6D1BDE81040FFF72ABFC8E3FF1FC821FFF7B6
S224013D80E9BF0000F8B55648564B574C1E7822680168B71E8A42FFB200F09F800568AB1ACA
S224013DA0B3F5007F04D302686FF4FF701118216025684E4AEB05D80D122101FB00254C4B34
S224013DC0288A642110FB01324FF4D17592FBF5F0C0B2FEF77BFA2468E305D90D00230925E6
S224013DE005FB0130414A32F810400133A4F50065ACB2082B22F810401546F0D1032E04D039
S224013E00122202FB015001F08FFE374C2168C805C30D122202FB035000F0B0F9022F56D877
S224013E203448354902680B689918B1F57A7F01604DD3A1F57A76066025683048EC05016889
S224013E40E60D0023092202FB0635284C34F8150002B2083214112A4A7F2CA8BF7F2450188A
S224013E606FF07F05AC42B8BF2C46C4540133082BE8D12448214C0568083121604DB910290B
S224013E8025D1214B21481B68C05CFEF7D7FD256015E0182907D11C491C480B681421C05CC9
S224013EA0FEF7CCFD0BE0282911D1174917480B6814215218C05CFEF7C1FD00222260124981
S224013EC00A68531C042B0B6001D10020086006490A68531C0B600120F8BD0020F8BD00BF02
S224013EE0C4E3FF1FC8E3FF1F94BFFF1F98BFFF1FB87BFEFF84BFFF1F88BFFF1F7CBFFF1FF9
S224013F0098E3FF1F90BFFF1F8CBFFF1FFB120300044B186828B104490A6812B9034B50202C
S224013F2018607047C0E3FF1F80BFFF1F00B00340684620F007010A4B8D4601B51869642290
S224013F405043A0F54A31FC3940F26633B1FBF3F0C0B2FEF7BBF9BDE801408546704700BFE7
S224013F6000B0034038B50B480B490C4C01F016FB0B4B1B6803F1280518685968224603C2F2
S224013F800833AB421446F7D103480146BDE8384001F004BB54190300781A0300CCE3FF1FA0
S224013FA084F0060038B5114B114D1C680121204600F094FB18B12978012049B938BD204667
S224013FC00C49282200F05EFB04460028F3D104E0094901F091FB012038BD2878012803D94F
S224013FE00220064901F088FB204638BD84F00600EE00FF1FCCE3FF1FFF12030038130300C6
S22401400000487047CCE3FF1F00487047E4E3FF1F00487047EDE3FF1F00487047EEE3FF1F0F
S22401402008B50948094901F0B9FA01F035FA084BD8690DF039F9074806F0EAF80028F4D17F
S2240140400BF05CFFF1E700BFA4180300781A0300289300209CF1060013B50446022002F085
S22401406001FA002307200093002C0CBF012402248DF80000062123206A46ADF804308DF823
S2240140800140FEF7F1FC1CBD014B9868704700BF98F3FF1FF7B51D4642F254030746009339
S2240140A0A3F59650D3070E461446019008D522490B781BB10120214901F01EFB013CE4B264
S2240140C0C82C09D91C4A107828B101201C492246C82301F011FBC824A54209D916490B78D0
S2240140E02BB1012017492A46234601F005FB2546154A4FF4FA7000216B4609F051FE134AA5
S224014100106008B9FFF78CFF00212046104A01AB09F046FE0F49086008B9FFF781FF0E4BCD
S2240141200E4A0F49002018601060012081E830008860CF600E61FEBDEE00FF1F5013030054
S22401414088130300C7130300681A002044790020B00C0020F4E3FF1FAC0C0020641A002018
S22401416098F3FF1F002164221423FFF793BF0000014B00229A60704798F3FF1F2DE9F0415B
S224014180C14AC24B14681B68C14D2DED028BB3FBF4F604FB1631A2B005EB81060022855AA5
S2240141A02DB205EE905A4FF4C87101FB0261F8EEE57A0232102AC1ED007AF0D10133B34996
S2240141C013F001020B601CD1B24F39684FF4FA75B1FBF5F605FB1617AF4D05EB8705875A0A
S2240141E03FB207EE107A4FF47A7606FB0256B8EEC70A0232102A86ED000AF0D1481CA54948
S2240142000860A14A9068002800F0EB81A342C0F0E88151681B1BB3FBF1F401FB1434002CD9
S22401422040F0DF8105A82146112212F02BFA19AE3546974B994F4FF4487202FB043138689F
S224014240974A09F035FE9048954A01689FED958A4F08B0EE483A00230832BB4211D812EDC7
S224014260012A52ED021A62EE022A41EEA12A03EE903AB8EEE34A33EE223A04EE228A01335F
S224014280EAE701EE101ADFED881AB8EE416AC8EE030A0134082C81EE862AB0EE618A60EE4D
S2240142A0822A12EE901A45F8041FC2D1794D2C68B4F5FA7F30D311AF00247C4A764B10684D
S2240142C0774A4FF4FA6101FB043109F0F1FD9FED753A7348F0EE436A002590ED014AD0ED36
S2240142E0003A64EE044A43EEA34A05EE105A0135F8EEC55A0830FB2D76EEA46A05EEA43A85
S224014300EBD1C3EE267A0134082C17EE902A47F8042FD2D1012500E0002509AFB846002448
S22401432059495B4B09684FF4C870DFED5E0A00FB043200238B4207D002EB830090ED006AC0
S224014340013346EE060AF5E707EE103AB8EE470A80EE800A13F070FF05AABCEEC01A10EE32
S224014360101A11EE100AA0520234102C48F8041FD6D135B902F058F990F82000012834D17F
S22401438032E09DF8241012AA0023043797ED006ADFED471AB4EEE16AF1EE10FA08DD92EDCD
S2240143A0002ADFED442AB4EEE22AF1EE10FA0FD4B4EEC86AF1EE10FA40F3118192ED003ADE
S2240143C0DFED3D3AB4EEE33AF1EE10FA40F10781012404FA03F4013321430432082BC9B29D
S2240143E0D3D18DF82410C5E755B92749CA680C46002A73D02720112105AAFEF71FFB6DE0BB
S2240144002E4C2468002CF0D102F084F80028ECD0234622A9CA1812ED104ADFED294AB4EE01
S224014420E44AF1EE10FA2BDD0AA8C41894ED005ADFED246AB4EEE65AF1EE10FA20D874EE6F
S224014440647ADFED215AC7EEA50A9FED200A9FED207AB4EEC05AF1EE10FA30EE872A07DD99
S22401446036EEC51A9FED1B6AC1EE061A22EE212AF7EE002A32EE223A65EE033AC4ED003AF2
S2240144800433202BC5D1B0E798F3FF1F641A0020ACF3FF1FAC0C0020C03A0020F4E3FF1F7C
S2240144A0F8E3FF1F0000000000007A4444790020000048440000484200008C42BC3A002068
S2240144C00000B4420000FA4352385E420000C843CDCCCC3D0000C842000000432069D0B175
S2240144E0002101A8102212F0CDF80021043696ED004A1FED075AF6EE004A44EE054A01AA04
S224014500FCEEE46A16EE900A885202311029EDD12B20FEF793FA0AA81AA99DF82420FEF7AB
S22401452095FE002D5DD0314B1C68002C59D13049304A086811680A22401A2F4950438842FB
S22401454007D901241C6001F0E5FF002849D0204642E02A4BE35853BB29484FF4FA72DFED8C
S224014560297A02FB0401C818D0ED005A0433B3F5FA6F45EEA57AF6D1DFED230A87EEA00A20
S22401458013F05AFE9FED217AB4EEC70AF1EE10FA0DD522AA111911ED100A9FED1D1AB4EEE2
S2240145A0C10AF1EE10FA02D5144B0120E0500434202CCED100231A461049585800B1013227
S2240145C00433202BF8D1052A0BDD08480121016001F0A0FF28B10020FFF73EFD01E00024E1
S2240145E0F7E622B0BDEC028BBDE8F081BC3A002074B9002040790020E0930400441A002089
S224014600C03A0020000000000000FA430000164300004842074808490268084B084810B5E8
S22401462000240A60214620221C6012F02BF8054B1C6010BD74B9002040790020BC3A0020C7
S224014640441A0020AC0C0020014B1868704700BFBC3A002008B58021064A074805F052FC66
S224014660064B1860064805F0AAFCBDE80840FFF779BC00BF279F01004879002068B90020C2
S224014680A800FF1F104B73B50446187802280E46154604D903200D49234601F02DF871B61C
S2240146A00B490C480A683346009221462A4605F08FFC61B638B10090074900202A4623469F
S2240146C001F01AF801207CBDEE00FF1F0B14030068B90020A800FF1F2A140300114B73B57D
S2240146E0044618780D0302280E4606D9009403200D4932462B4600F0FFFF71B60B4B0C48B8
S2240147001B6821462A4605F022FC61B640B1019000940020074932462B4600F0EDFF0120A3
S2240147207CBD00BFEE00FF1F6614030068B90020A800FF1F9C140300024B1B681818FFF742
S224014740A1BF00BFACF006000A460146FFF7F4BF73B50D46044607F01DF906460DF1020034
S22401476006F026FCA968BDF802302A6868685A4358434B432A60AB60686001A806F0F8FB0C
S224014780D4ED006A94ED011A94ED023ADDED017AB8EEE67AF8EEC11AF8EEC33A27EE270A5A
S2240147A021EEA72A23EEA74AFDEEC00AFDEEC22AFDEEC44AC4ED000AC4ED012AC4ED024AF8
S2240147C008F076FB08F082FB08F078FB30467CBD104B37B5044618680F4B4FF47A720D46EE
S2240147E0B2FBF0F118684843FEF7B2FD01F09AFE78B90A4A11788B1E012B0AD88DF804009F
S22401480003211F2001AA8DF805408DF80650FEF72BF93EBDCC790020F0790020047A00203F
S224014820014B01221A607047EC790020014B01221A607047087A0020044B05491A68501C80
S22401484018600B680BB901F08BBD7047F47900206C7A002073B51D46174B8DF8071006464B
S22401486014461868324600210CF07EFB13480022026011490122086800230DF107010CF059
S22401488099FA0828F5D00D4B1A680AB930BFFAE70B4900200860084B294618682246012373
S2240148A00CF0F2FA0828F6D0054A106808B930BFFAE700207CBD00BF28930020EC79002044
S2240148C0087A00207FB5064604A8154600F8101D1946013011F0B5FE0C4B002132461868D0
S2240148E00CF042FB0A4900220A6008486A1C0123006869460CF05EFA0828F6D0044B1A686E
S2240149000AB930BFFAE7002005B060BD28930020EC79002070B58C4B054618688AB00C4659
S22401492040B18A490A68954204D1894B1878A04200F00781002006F0CFFD844E792006F08E
S22401494081FC782006F054FB824A3560824E002128461160356006F077FD308806F0E2FA3D
S2240149604FF4FA6006F0EAF9102006F039FA8CB10DF10E0006F068FA784B1878012806D966
S22401498002207749BDF80E30224600F0B5FE204606F076FA6E490DF10E000C7006F054FAE2
S2240149A00DF1060006F0A8FA0DF10A0006F0ACF90DF1050006F0F8F9684C03A807F05AFA1E
S2240149C002A806F0A7FA2278022A07D903206549BDF80620BDF80A3000F08EFE2378022B0B
S2240149E007D903206049BDF806209DF8053000F083FE5A4801780229044607D903205B49B8
S224014A00BDF80820BDF80C3000F076FE2278022A05D903205649BDF80E2000F06DFEBDF805
S224014A200630544C94FBF3F008F028F8BDF8060094FBF0F008F034F8BDF8061094FBF1F087
S224014A4008F042F84C4A51681068147A04AB03C352F8090F1C70516807AB03C3107A187023
S224014A6004A808F0DAFEBDF80A10C90308F000F804A808F0D2FE9DF80520D10308F078F8BF
S224014A8007A808F0CAFEBDF80C40E10308F076F8324B1878022803D90320384900F02CFE85
S224014AA0374CE0690CF000FC07F0C8FA18B10020344900F021FEE0690CF0F6FB27490A78D6
S224014AC0022A0C4603D903202F4900F015FE2378022B03D903202D4900F00EFE04A808F0FB
S224014AE09CFE07F0B5FA2A4807F0FEFE012007F023FD022007F0ECFDBDF8060007F052FBD2
S224014B0016480178022903D90320224900F0F4FD072007F02FFC0821072007F075FB012021
S224014B2007F04BFC642007F059FC012006F0F6FE20B10020184900F0DFFD02E0024B0122E6
S224014B401A600AB070BD00BF6C7A0020707A0020D8790020C8790020CC790020EE00FF1FDC
S224014B60EF1403001D1503006A150300BB1503000616030040420F0080B502002616030079
S224014B8028930020381603005416030072160300D147010080160300981603003220002115
S224014BA0FFF7B8BE13B51648164B0178002202291A7008D928240094032013494FF4FA72BD
S224014BC00A2300F099FD4FF4FA700A21282207F059F9044648B1282300930B494FF4FA728D
S224014BE00A2300F0D9FD012008E008F061F908F06DF908F063F9054A204614601CBD00BFEE
S224014C00EE00FF1F047A0020AD1603006C7A002010B5414B187800F02001CAB286B07ABB3F
S224014C2000213E4805F00CFB642001F059FD01213A4805F005FB642001F052FD38480068BB
S224014C400CF056F8642001F04BFD002006F044FC08F04BFE11F07AFB10F0D6F810F05EFB13
S224014C60FFF7CEF9FF2104461822684611F00AFD69462046182211F0D3FC2A49D0B122E002
S224014C80294C2A4A636923F0400060614FF48071274C1162636943F4807060610A240A201F
S224014CA001F01EFD2249CA68013C42F48073CB60F5D1B5E70B781BB101201E4900F01CFD72
S224014CC00DF056F917E00A78012A03D902201A4900F012FD04F10C00032107F0C9FF032176
S224014CE0204608F02BF80DF04FF908F0E1F808F0EDF808F0E3F80FF0F1FA10F069FB07F022
S224014D007FFE08F011FEFFF74DFF0C48092106B0BDE8104005F0E4BA00F0074094F1060049
S224014D2028930020EE00FF1F2080044000C00440C0F00F400817030059170300F8F006001C
S224014D40014B1868704700BF6C7A002038B51546084A0C46107028B120462946BDE83840CE
S224014D60FFF7D8BDFEF7FAF90028F5D1BDE83840FFF718BF047A002032210022FFF7E6BF34
S224014D80014B93ED000A7047747A002030B59D4D9D4C2A6823689A42ABB000F0DA810DF11D
S224014DA00A000DF1090100900191002208A903AB06A807F0E7FC954B9DF809101A68501C34
S224014DC0186009B92B682360BDF80A2002F0700058B1039906A808F03FF805A904A805F06B
S224014DE095FE0498059908F04FF8BDF80A1001F008031AB26AB1BDF92000BDF92210BDF97B
S224014E0024301890199118A80021039A1A9307F0E9FF03A90AA806F0D9FF014660B9BDF99A
S224014E202820BDF92A00BDF92C3018921990039A1A9318A808F0C8F908F0C8F805A903AA09
S224014E4018A807F0C5FD05A903AA0CA807F0ACFD05A903AA0FA807F0B1FD0C990D9841F3EF
S224014E604F120E9940F34F1307EE102A41F34F1201EE103A06EE902ADFED657AB8EEC70AC2
S224014E80F8EEC11AF8EEE62A60EE270A21EEA72A22EEA73A12A8CDED120A8DED132A8DED44
S224014EA0143AFEF705FA5B4B0C9918680A1A91110D985A689B68821A90110E9A494300FB43
S224014EC00011D01A831103FB0311B1F5803F13D95148524A03680BB91168016012680068BA
S224014EE0131A092B0BD901F03BFA4A490C9A0D980E9B0A6048608B60474A0021116048480A
S224014F00484B026819688B18474903600A689342C0F01D819B1A0360BDF96A20BDF9620072
S224014F20BDF96610BDF96E30ADF88000ADF884200C980D9AADF88210ADF8863041115311EA
S224014F400E980F9AADF88810ADF88A30411113131098119AADF88C10ADF88E3001131313B7
S224014F60ADF89010ADF89230FDF790FE00283AD02E4B93ED000A00230CA82D4A1958985819
S224014F809950401A07EE900A0433FAEEC87A0C2B07EEA70AF0D1274A24491068431C642BF6
S224014FA081ED000A136040F0D28010EE100AFCF78BF902460B462048204911F039FA044607
S224014FC01F49A2B248681C490AF03EFE082801D130BFF5E7154800220260FF214FF4FA6059
S224014FE005F0BCFAB3E001F09DFA00285FD115480178012901D003292AD11C20142120AA5A
S22401500053E000BFF4790020E8790020F07900200000003ADC790020D079002074B900209C
S224015020C8790020707A0020CC790020747A0020F8790020D47900200C7A00208817030046
S22401504028930020047A00200000803D0000803804292CD1BDF88020BDF88230BDF884003D
S224015060BDF88610ADF89420ADF89630BDF82020BDF82230ADF89800ADF89A10BDF82400BA
S224015080BDF81810ADF89C20ADF89E30BDF81A20BDF81C30ADF8A000ADF8A210ADF8A42064
S2240150A0ADF8A6301C20142125AAFDF7C7FCBDF98E00BDF99010BDF9922003EE900A05EEF8
S2240150C0901A00EE102A5FED204AB8EEE34AB8EEE56AF8EEC07A24EE245A26EE247A67EEC3
S2240150E0A40A15A88DED155A8DED167ACDED170AFEF7EAF8BDF98400BDF98230BDF98610AC
S224015100BDF9802002EE900A01EE103A04EE101A05EE902A1FED332AF8EEC11AB8EEE23ABB
S224015120F8EEC44AB8EEE56A61EE826A63EE023A24EE825A26EE027A1CA8CDED1C6ACDED7C
S2240151401D3A8DED1E5A8DED1F7AFEF7C3F8012000E000202BB030BD10B588B002A805A9FF
S224015160FFF7F6FA072813D11A491B4811F090FA05A8032107F07CFD02A8032107F0DEFDFE
S224015180162407F095FE07F0A1FE07F097FE15E01249134A134B10F0010F18BF0A4610F0E1
S2240151A0020F18BF0B4610F0040F0F4808BF0146009109480D4911F03BF904460C4B0649DB
S2240151C05868A2B20AF040FD082801D130BFF5E708B010BDBD1703004C7A00203713030022
S2240151E0A7170300AD170300B4170300D41703002893002073B5FEF703FF00F10C063146F1
S2240152000446FFF7A5FA072819D026490A78012A03D90220244900F06FFA224DFF211822E8
S224015220204611F02FFAFEF7BDFE2E781EB101201E4900F061FA0CF09BFE012518E0FEF738
S224015240B1FE03210546304607F012FD2046032107F074FD07F02CFE07F038FE07F02EFE4B
S224015260104B1878012803D90220114900F044FA0C4B187801281E4607D9A168009102207E
S2240152800C4994E80C0000F037FA3278012A07D96369094900930220E268236900F02CFA96
S2240152A028467CBDEE00FF1FE3170300F31703000A1803001D1803003818030002682DE9FB
S2240152C0F041002A00F08780444C036925689D42C0F0818043681BB126688568AE4202D3A6
S2240152E00027476013462468C26885691F68A61A446905FB0646B6FBF7F207FB1266002465
S2240153005A6846612546954210D005F1010CBCFBF2F402FB14C44CB14FF00C0808FB0438F8
S224015320D8F80880B04501D86546ECE74FF00C0808FB053CDCF80C20B24210D9DCF810303B
S2240153401A880A809B788B70DCF80C30426923499A1A83690968B2FBF3F252182DE008FBC9
S2240153600438B61AD8F808C0BCEB020248BFD2190C2707FB053507FB04332D691C6995F896
S22401538000C02778931B774303FB0C7797FBF2F70F706778A47895F801C0AD7877436643F4
S2240153A003FB0C7703FB056397FBF2F793FBF2F28A704F7009490B685A1C4168026121B141
S2240153C0836802699A4288BF036104490B68C3600120BDE8F0810020BDE8F08174B900204D
S2240153E010B5FEF711FE002304461A46E15C0133FF2918BF0122092BF8D1184801782AB9C5
S22401540031B30120164900F077F921E0012903D90220144900F070F92278134B4AB9607810
S22401542038B9A17829B9A179E27919705A70207A06E0607852081A70A278410859705008F2
S22401544098702179094BE0786279187059709A7007480849012383618B6110BDEE00FF1F55
S22401546068190300B3190300E800FF1FEB00FF1FA07A00207C7A0020044B1A78824204D0FB
S22401548018700348034B016819617047787A002074B90020A07A0020F7B5394F394D694649
S2240154A03846FFF70BFF01A904462846FFF706FF354B19780646002935D03868334A904291
S2240154C002D12B6883422ED0314B2D481A681F6827F0FF0505F580770569BD4205D91B68C9
S2240154E023F0FF0303F580730361022902D091058A0D00E0D2B2130915D1264C244A20882A
S22401550011681F4BA578ADF8000021F00F0418698DF802501034A0422ED9156825F00F0294
S22401552010321A6128E07CB11B4D9DF80010286805F0C8F868689DF8011005F0C3F8A868EB
S2240155409DF8021005F0BEF87EB1134D9DF80410E86805F0B7F828699DF8051005F0B2F8ED
S22401556068699DF8061005F0ADF81CB9301C18BF012003E0012001E00124D5E7FEBD00BFB6
S224015580A07A00207C7A0020787A0020781A030074B90020081A0300D000FF1F0C4B1A68D5
S2240155A0824207D00B4A186010681268D86000201A615861084B1A688A4207D005481960C1
S2240155C001680268D96000201A615861FFF764BFA07A002074B900207C7A0020124B1349F6
S2240155E01868134A134B00280CBF104608461968012907D002290AD091B90F4A0F4B1168D6
S2240156000F4A08E00C490F4B09680F4A03E00A4B0E4A19680E4B00290CBF1146194600E0D6
S2240156200649FFF7BBBF00BF987A002000190300781A0300C07A00209C7A00203419030023
S224015640841803000C1A030014190300D8180300E8190300014B1860FFF7C0BF9C7A0020E6
S224015660014B1860FFF7BABFC07A0020014B1860FFF7B4BF987A0020104B984270B5044694
S2240156800D46164602D00E48814201D1FFF7A8FE0C4B0D480D495C6045600C680A25B6FB45
S2240156A0F5F2121982609A600A680968C260DA6001611961BDE87040FFF7EEBEEC180300DD
S2240156C0C4180300A07A00207C7A002074B90020024B186808B1FFF7DFBE7047BC7A002022
S2240156E0014B1860704700BFBC7A0020014B1870704700BFC47A00200EB4F0B52449C8B020
S2240157004DAB51F8200053F8042B068801934FF480710DF11E00ADF81C6010F0ADFE06461E
S22401572007A810F03DFE1B4B1A78012A2AD1F41CF11C002CC4EB010124DB132C12DD07AD80
S2240157406B1802AA03F1100718685968154603C50833BB422A46F7D198781988A8702980C3
S224015760002006E007AB02A85918224610F069FF01208DF81B001421382002AA133CFDF743
S22401578073F9D5E748B0BDE8F04003B0704700BFBC1A0300C47A00200EB410B5C3B045ABC4
S2240157A0044653F8042B02A84FF48071019310F063FE0020044902AA2346FFF79DFF43B045
S2240157C0BDE8104003B070478C1A0300002200230D488118C818002101600C488018C01862
S2240157E001600B488018C01801600A488018C0182033B3F5C07F0160EAD10432202AE6D1CF
S224015800054B002119707047B87E002038800020C87A0020487C0020B881002038B5324D98
S2240158202C780B2C2DED028B59D8B0EB410F56DB01EE101A07EE100AF8EE416ADFED2B1AC9
S224015840F8EE477A26EEA12A80EE270AC2EE272AF7EE008AF0EE080A12EE900AB0EE688A93
S22401586000EE608AFBF730FD41EC100B12F084FA51EC100BFCF73EF838EE086A03EE100A3F
S22401588066EE033A73EE034A38EEE34A08EE084AF0EE005A35EEE45A154A164984EE057AE0
S2240158A0A300D018CA1801342C70F8EE007A27EE270A80ED007A104860EE030AC118C2EDDC
S2240158C0000A81ED007A0D4A0D4928EE488AD018CB18C0ED003A83ED008A002000E001206E
S2240158E0BDEC028B38BD00BFB8810020DB0FC940C87D0020F87D0020287E0020587E0020B6
S224015900887E002070B52DED068B784B1C780B2C9CB000F2E680B0EB410FC0F2E28000EE6C
S224015920100A07EE101AF8EE407AF8EE479A9FED701AC9EEA70AB6EE009A60EE811A9FED90
S2240159406D8A61EE899AF7EE008A39EE690A8DED058A8DED008A8DED068A8DED018A8DED39
S224015960088A8DED038A8DED098A8DED048ACDED078ACDED028A12F0FBFBB0EE40AA39EE3B
S224015980890A12F0F5FB8AEE002A02A807AA00239FED595A9FED591A62EE053A02EE015A44
S2240159A0DFED575A03EE825A62EE254ADFED556A24EE827ADFED542A22EE263A35EEE34A35
S2240159C075EE631A77EE636A72EE023A22EE226A73EEA22A46EE022A36EE280ADFED4B4A33
S2240159E012EE426A03EE420A42EE642A9FED482A74EE077A36EEA55A36EE426AC7EE800AE7
S224015A0081EE803AC5EE005A82EE801A86EE000A8DED0A8A8DED0B8A8DED138A8DED148A76
S224015A200AA9CD1813AEF11895ED017A90ED004AD2ED007A91ED015A63EE071AC1ED027A8C
S224015A4040EE841A41EE457AD5ED006AD1ED003A45EEA61A40EE637A04330C2B85ED024A38
S224015A60E0EC011AE2EC017ADAD1DDED020ADDED082A9DED033A9DED091A70EE885A38EE99
S224015A80628ADDED044A35EE832A38EE418A32EE246A78EEC88A1F4A1F4B86EE280AA000BC
S224015AA011181A180134B1EE627A80EE804AC3EE007AC4EE808A81ED004A1849C2ED007A74
S224015AC00B18174AC3ED008A164B1118074A1818F1EE411AC0ED001A81ED007A147000206A
S224015AE000E001201CB0BDEC068B70BDB8810020DB0FC940000000004290933E429093BE5A
S224015B004290133E980082BE0B702D3F980002BF9800823EC87D0020F87D0020287E00202C
S224015B20587E0020887E00202DE9F041364B93F8008005460024288801B207EE901A0023DC
S224015B40B8EEE77A1A461946414545DADFF8CCC02E4F2F489444DCED005ADFF8C4C03E19D0
S224015B60F718944497ED006A9CED001ADFF8B4C0284E00EB040E66EE011A9E44944447EE8B
S224015B80251A9CED005A9EED002ADFF89CC03019C0189444204E45EE021AD0ED006ADCED4F
S224015BA0002ADFF888C03619F618944446EEA21AD6ED003A9CED003A43EE231A87ED007A55
S224015BC08EED006AC6ED006AC0ED001A013104322033B0EE617AB7E7B6EE000A77EE000A07
S224015BE0043410EE900AFBF76FFB41EC100B12F07FF951EC100BFBF755FE202C25F8020B9E
S224015C0099D1BDE8F08100BFB8810020B87E002038800020C87A0020487C0020C87D00200D
S224015C20F87D0020287E0020587E0020887E00203A4B5A6910B53A4C42F480108121586133
S224015C406170374B5A7802F00400C1B20029F8D0344C0A2000F044FD0BF0A0FA2378012B88
S224015C6003D902203049FFF747FD2278012A06D92E482F49027843780220FFF73DFD2749E4
S224015C802C484B6923F480244C610146FFF786FC04F04AFBFEF7DEFCFFF7A2FB0120FFF7FD
S224015CA01FFDFDF7A3FDFCF747FFFDF7FFF8FDF7BDFFFCF7FBFAFCF727FEFEF7A9FFFDF7C9
S224015CC01FFAFEF7A7FC174A1078022803D903201949FFF711FD0020FFF702FDFCF71EFE71
S224015CE00446FCF7DFFF0443FFF750F80443FEF749F80443FCF74AFB0443FFF7CDFB0443B6
S224015D0000F038FB0443204600F05AF8044300D130BF0A49C8690BF0C7FADFE7208004407A
S224015D2000400740EE00FF1FD01A030000F00740E81A0300781A03001A1B030028930020F9
S224015D40064B684620F007011A698D46044901B590B20880BDE801408546704700B00B40A0
S224015D60BA81002008B5084B588008480A46062119700378012B03D902200549FFF7BCFCE9
S224015D80BDE80840FCF7C2BC6CB90020EE00FF1F3D1B030008B561B6022806D1064B18684D
S224015DA0012100F50020FEF799FC0449C8690BF07BFA71B6012008BD8CF0060028930020C4
S224015DC038B5274B19780129024642D1002840D12448254D01687F2920D82A68B2EB013FB9
S224015DE001D1013101600368180300F500200121FEF774FC68B11D4A1178012905D9194BA1
S224015E001B491A680220FFF777FC02201949FFF7A9FF14480268511C01601CE0164C296866
S224015E202068814206D90821FEF78EFC20680830206010E002245A809A801C70FCF766FC5F
S224015E400A4A1378012B06D920460C49FFF754FC01E0002038BD00F083FA012038BD00BF19
S224015E606CB90020BC8100208CF00600EE00FF1F541B0300881B0300C8810020A51B0300A8
S224015E802DE9F043A44B04461878052887B000F02B8200F065FA2378192B00F085809F49DE
S224015EA00022133B0A60062B00F20181DFE803F0042819B840587C00974B197811B101203C
S224015EC0974966E197480278012A03D902209649FFF712FC95489649002303600B60012062
S224015EE0E0E08D4C2378002B00F0FE818D490A78012A03D902208F49FFF7FEFB00218DE0F8
S224015F008548037813B101208B4942E14FF4002219681068814240F0D480884B88491A688C
S224015F200420043A10F07CFB002800F0CD80C8E0794D2878821E022A02D90120814928E174
S224015F40D4F80230D4F8061003F50020FCF716FF022129706880D4F80200C208AA80A3E052
S224015F606D4A1378981E022802D90120764910E1D4F8026006F5002635464FF6FF70D4F803
S224015F800610AA1B8A4207D20023E95CFF2940F0A9800133082BF8D15F4B03211970588033
S224015FA022FA01F29A807FE05B4803789A1E022A02D901206549ECE065885848E9000268FB
S224015FC001F5002595420FD0564B1978012904D902205F492B46FFF78FFB5E484E4B002295
S224015FE04FF6FF71026059804C4805F1100202600022A95CFF297BD10132102AF9D181E07A
S224016000454C294610226088FCF78EFE514A608013681033D8081360A0800421217043E05C
S2240160204FF4002311681868814240F0A980434C434924680420221F10F0F2FA002840F08F
S2240160409F80FCF7C7FE002800F0A180354D2B78012B03D902204049FFF74EFB287801284A
S22401606003D902203D49FFF747FB71B63C4B0DF116020DF1170100920191186821460290E7
S22401608008220DF11503374804F05AF861B62549002800F081800A781AB133490120FFF777
S2240160A02BFB05201C4A1070FCF730FB1CE11D4B1978002900F0188101202C49FFF71CFB40
S2240160C012E104202A4964E016490878012803D902202849FFF710FB0F4B02221A7000224A
S2240160E05A805FE729460822FCF71EFE083546E72846211D102210F093FA002880D0032062
S2240161001D4946E02846211DFEF7BCFA00283FF477AF022019493CE06CB90020C0810020CF
S224016120C71B0300EE00FF1FF81B0300C8810020BC810020111C0300281C03008CF0060093
S224016140040008007A1C0300B21C0300E61C03001B1D0300C4810020C51D0300E31D030036
S22401616068B90020A800FF1F0B1E0300E51F03000E2003005A1C03005B1D0300861D030014
S2240161805B4A117819B101205A49FFF7B5FA5A490420FFF7E7FDA7E09DF815500A78002DC7
S2240161A04AD1012A03D902205449FFF7A5FA71B6DFF864815248D8F800700DF116060DF18E
S2240161C01705009601950297214601220DF1150303F0B6FF814661B64A4FF8690BF064F861
S2240161E0B9F1000F03D19DF81510032902D00020454954E771B6D8F80020009602922146C3
S224016200019504220DF115033D4803F099FF044661B6F8690BF048F81CB99DF81530042BBB
S22401622002D0002039493AE73148017801297FF638AF0220364932E7012D3FD1012A03D94C
S22401624002203449FFF758FA71B6334E334A33682B48214603F0FFFE074661B6294DE8699C
S2240162600BF022F82FB100202D493A46FFF744FA17E771B60DF116030DF117000093019064
S22401628031681F480291082221460DF1150303F057FF044661B6E8690BF006F81CB99DF860
S2240162A01520042A02D000201E49F8E6104B187801287FF6F6AE02201B49F0E61AB10120C9
S2240162C01A49FFF719FA0F4D01212046FEF706FAE8690AF0E9FF04F500200121FEF7FEF919
S2240162E0E8690AF0E1FFDCE607B0BDE8F08300BFEE00FF1F981D030034200300461E03009B
S224016300A800FF1F28930020701E0300A41E0300E31E03000B1F030068B90020955D01001B
S224016320361F03004F1F0300991F0300AF1F030008B5084B187805280BD107490A78012A5C
S22401634003D902200549FFF7D7F9BDE8084009F0D5BD08BD6CB90020EE00FF1F6E20030006
S224016360024B03481A680260704700BF74B90020D08100207FB52C4B1878012850D02B496F
S2240163802B4B0A681868111A0A22514347F22F53994245D927480178022903D9032026496F
S2240163A0FFF7AAF9FFF7C4FF684603A905F0F2FA83070DD41F4C25781DB101201F49FFF78A
S2240163C09BF91F481F49FFF7E9F8FFF765F8FCE7FEF7E8FB1B480146FFF7E0F8FCF7FAF911
S2240163E0FDF7F4FB01210A46174803F03FFF0AF0DFFE0E4B19681A68501A092801D830BF1C
S224016400F9E70C4B1978012903D902200F49FFF773F9002104200A4609F094FD012000E0AC
S224016420002007B000BD00BFCC81002074B90020D0810020EE00FF1F96200300B12003003F
S224016440A4180300781A0300F8F00600DE20030010B50446FFF784FF014B1C7010BD00BF07
S224016460CC81002038B5214B1D78854204463BD01870FCF773FE00B34CB1022C1DD8E5B942
S2240164807820294604F06AF8C820FF2113E04FF4FA70FF2104F062F87820214604F05EF83A
S2240164A04FF49670B42104F059F87820214604F055F8C820642104F051F80C48017871B992
S2240164C00B4D2A683AB10B4B1878012803D902200949FFF711F900202860FFF7BBF82046CB
S2240164E0BDE83840FFF7BCB838BD00BFD4810020D8810020EE00FF1FEA200300014B0122E5
S2240165001A607047DC810020014B00221A607047DC810020024B1878003018BF01207047EF
S224016520D4810020054B186828B905490A68101C18BF012070470120704700BFD881002084
S224016540DC810020054B1868016829B100F580500268002A18BF0020704700BF94F0060055
S2240165601E4B70B51C68064604F58050026812B92546044600E0054619490B78022B03D9EB
S22401658003201849FFF7B8F828460121FEF7A6F808B114491DE012480278022A03D9032096
S2240165A01149FFF7A9F8284631461022FEF76AF808B10D490DE00A490B78022B03D9032078
S2240165C00A49FFF799F820460121FEF787F820B10649FFF7E1F8012070BD70BD94F00600EB
S2240165E0EE00FF1F1A21030030210300572103000B4B68461A6820F007018D4601B5094903
S22401660042F0800018600B685A1C0A6003F0CAFFFFF75EF8FDF77CFCBDE80140854670471B
S2240166200000044074B90020014B1868083070479CF00600094B0A4A196801F108032831F7
S22401664053F8040B8B4242F8040BF9D11988054B118001221A600248704700BF9CF0060089
S224016660E08100200882002073B5174E306808B9164924E0164B1C6820680121009020461B
S224016680FEF72CF828B1134801780120D1B1124915E004F1080011492822FDF7F3FF054669
S2240166A00028F0D1009902AB4A1C43F8082D204669460822FDF7E6FF3560284602E0FFF7DC
S2240166C01BF801207CBD00BF08820020812103009CF00600EE00FF1FD7210300E08100201F
S2240166E038B50A4B054698680AF0EAFC0446074880680AF0E5FCA04204EB050201D9904247
S224016700F5D391B28842F2D338BD00BF28930020034B10B5044698680AF0D2FC206010BDD8
S22401672028930020F0B52DED028B0023044689B00F4616461846E218D2ED007AF4EEC07A28
S224016740F1EE10FAA8BF01300433202BF3D1012826DD2046082101F039FA0022A018D0EDF6
S224016760000A80EE801A08A98D180432202A05ED081AF3D19FED0D8A00250124B44210DA06
S22401678007EB44100822694601F032FAB4EEC80AF1EE10FAC4BFB0EE408A25460134EDE7FB
S2240167A00025284609B0BDEC028BF0BD00000000F8B504460F46002304F5385000F10806B5
S2240167C081688B4212DA03F1700503F1F00604EB461604EB4511301D0D1D243650F8041BF6
S2240167E0B04245F8041BF9D10133E5E7022A05D087EAE772A2EBE7726AB9F8BD0025336832
S2240168009D42F5DA05F1700204EB4210043001F0FFFF0135F3E7C2F10807002530688542A2
S22401682009DA05F1700104EB4113181D394601F0FCFF0135F2E7F8BD30B5002300F53852DA
S22401684091688B4212DA03F1700403F1F00200EB441500EB4214221D291D243452F8045B27
S224016860A24241F8045BF9D10133E7E730BD00002DE9F0472DED028B91461C460A9F0E46B3
S224016880002932D103F5385304F604619A689FED1A0AFFF747FF07F10C05804604EB800AAE
S2240168A004F53850043541688E4213DA15ED018ADFED127A28EE278A0AEB462205ED018A2C
S2240168C092ED010A01F002FA38EE000A013605ED010AE5E7204639464A46C7F80080BDECAE
S2240168E0028BBDE8F04700F047B84FF6FF70BDEC028BBDE8F08700BF000048436666663F79
S224016900F0B501294FF00004146001DC1C60F0BD01251D60146800EB840696ED007AD0ED97
S224016920017AB4EEE77AF1EE10FA44BF15601C6002291FD0051D02241668043500EB860765
S22401694095ED000AD7ED000AB4EEE00AF1EE10FA02DD1E6014600AE01E6800EB860696ED27
S224016960001AB4EEC10AF1EE10FAC8BF1C6001348C42E1DBF0BD00002DE9F0432DED028B42
S2240169808BB002ACDFED328A81460E4690462746002509F5385359688D420FDA06EB850184
S2240169A0B0EE000AD1ED030A11F042FC10EE103A78EE808A47F8043F0135EAE700258D42EA
S2240169C008DA043494ED001AC1EE281A0135C4ED001AF4E7002202AB0192029206F10C0036
S2240169E001AAFFF78DFF019C0AA800EB840111ED070A01F06BF9029B0AAA02EB8300B0EEE2
S224016A00408A10ED070A01F061F9F2EE0E0AF0EE408AB0EEC80A11F0C7F878EE680AB0EE07
S224016A20C00A80EE808A07210A4B01FB084803EB8802D2ED007AB4EE678AF1EE10FA54BF05
S224016A40204600200BB0BDEC028BBDE8F08300BF00000000002203002DE9F0418D6800F58C
S224016A603853072D5D6002DD0020BDE8F081CC68802C9C60F8DC0022AA4211DA530201EB95
S224016A80030CC7180023A34208DA9E0007EB0608664401333669C8F80460F4E70132EBE7F9
S224016AA00022A24213DA55014E190023451906EB030C0CF5616CEF1807F5F057DCF800C0F3
S224016AC00433202BC7F804C0F1D10132E9E7496801600120BDE8F081002101604160816099
S224016AE01C220C300FF0CEBD38B501230446036000F5385000254560856004EB4521081D28
S224016B004FF40072002101350FF0BCFD072DF4D1002505F1700204EB4213181D0021202249
S224016B200FF0B0FD05F1F00004EB4011081D2022002101350FF0A6FD802DEAD138BD10B5FB
S224016B40044698B111B14FF0FF33436004F1080004F596541C3401F0D0F9204601F0E0FCA9
S224016B602046002101F04FFD002010BD012010BD38B505460C46B9B101F108001022192116
S224016B8001F0D1F990B104F596520A20691E1C3201F0DBFC60B920460121FFF7D0FF0028BD
S224016BA014BF0420002038BD012038BD022038BD032038BD32B14B1E012B05D882E80300BC
S224016BC000207047012070470220704710B5B8B1002915DB002A13DB8A4211DA041F0023CB
S224016BE010460434D4ED007AF4EEC07AF1EE10FAC4BFB0EE670A184601338B42F1DB10BD37
S224016C004FF0FF3010BD2DE9F0438046ADF26C6D0D461446002A55D000294DD002F59F5381
S224016C201A682B68511C8B4246D12A69002A43D06B68D2F808901E68009659689A681023D1
S224016C4001F034F90646002836D104F108073846414601F07AF9384601F008FA182823DD77
S224016C60384619214A460AAB01F0FDFB20BB03AA0AA8296900F08DF90246E8B9296803A8C1
S224016C80B6EE000AFFF7A2FF011E15DB04F596541C34204601F073FC204601F0CAFC431C25
S224016CA013D040EAE07011E004F596501C30314601F065FC304609E004F596501C300021E1
S224016CC001F05DFC4FF0FF3000E000200DF51B7D0DF5806DBDE8F0832DE9F04190B00D467B
S224016CE0169C9846002C33D06368591E012929D842BB0646EE4600F12002306871687746A4
S224016D0003C708369642BE46F7D108AF05F12002286869683E4603C6083595423746F7D1EB
S224016D20684621681A4601F0A2FD58B908A894E8060001F09CFD28B9684641462246FFF7E5
S224016D4062FF07E004F596501C30002101F017FC4FF0FF3010B0BDE8F08138B500254FF000
S224016D60FF33456005618560C5600360044600F00BF8606030B100F00BF820610068206029
S224016D80284638BD012038BD00487047F000FF1F004870473C01FF1F70B1436973B1816932
S224016DA071B14268002A05DD80680028D4BF052000207047042070470120704702207047CA
S224016DC00320704710B50446FFF7E6FF48B923784BB9E06848B1216900290CBF0420002046
S224016DE010BD012010BD022010BD032010BDF8B50446FFF7E7FFD8B90546A3689D4215DA6B
S224016E006268A069236902FB05F1AE00871903EB8100616900F0ECFEE2689619D6ED007A83
S224016E2030EE270A013587ED000AE6E70020F8BD0120F8BD10B50446FFF7AEFF78B9237853
S224016E40012B0ED1E06970B16268A1688A420CD16069A369984214BF0520002010BD012086
S224016E6010BD022010BD032010BD042010BD38B50446FFF7DFFFD0B96568A84215DA62696A
S224016E808300D218D2ED007AF5EEC07AF1EE10FAD8BFE169A269DCBF91ED007A67EE277ACB
S224016EA0D318C3ED007A0130E7E7002038BD012038BD10B50446FFF76FFF68B92378022B31
S224016EC00CD16268A06882420AD16169A369994214BF0420002010BD012010BD022010BDEC
S224016EE0032010BDF8B52DED028B0446FFF7E1FF054678BB6069616800F090FE9FED178A6D
S224016F00F0EE408A6268954214DA6269A769AE009119D1ED000A30EEE80A11F081F9BF19D6
S224016F20A06987ED000A861996ED001A013538EE018AE7E7002393420ADAA16901EB83007E
S224016F40D0ED007A87EE880A013380ED000AF2E7002000E00120BDEC028BF8BD000000005D
S224016F6008B590B1017801290CD004D302290ED1FFF7B8FF01E0FFF73AFF08B1022008BD50
S224016F80002008BDFFF773FFF7E7012008BD032008BDF8B5064617460C4600293ED0CD68DE
S224016FA0002D3BD04A68002A38DD002836D0002F34D02B68002B33D0501E55F82020002A5B
S224016FC02ED00968906881422AD15D6858693146AA000FF036FB00252E466268E368964229
S224016FE011DA002E07DD58195B5950F8041C58698A69824216D1E1684859FFF7B1FF0435D9
S22401700090B90136E9E7511E384653F821309A68996992000FF015FB0020F8BD0120F8BD41
S2240170200220F8BD0320F8BD0420F8BD70B5002405462026046044608460C46221463246F7
S22401704000F10C000FF01EFB214650222C636C63AC6305F13C000FF015FB05F1B40021467D
S2240170603246BDE870400FF00DBB002310B500210446C0F88C30C0F89030202200F1940070
S2240170800FF000FB04F1D4003221082200F04BFF2046BDE81040FFF7C9BF0000144B33F80D
S2240170A01000642812D005D801280FD017D32A2809D119E0B0F5987F0ED04FF6FF72904236
S2240170C012D0652805D0DFED0B7A0AE0DFED0A7A07E0DFED0A7A04E0F6EE007A01E0F7EE9C
S2240170E0007A20EE270A70479FED020A704700BF58EF0600000000009A99193F6666663FC3
S22401710070B506462DED028B10460C461546FFF7C5FF08213046B0EE408A00F057FDB4EEA7
S224017120C80AF1EE10FA02D90123236000E0002504F1D40000F0E1FE2846BDEC028B70BD9E
S22401714070B59FED150A05460C4601F0D2FB134BD3ED006A03281DDDF0EE667A00234FF031
S224017160FF3254F823109E0051B1A91991ED007AB4EEE77AF1EE10FA44BF1A46F0EE477A11
S2240171800133082BEDD1531C04D0002144F822100138DFE770BD00BFCDCCCC3E6003FF1FE3
S2240171A0F0B501F59C532DED028B0746D86989B00C46154610B901F1B4000AE00021202268
S2240171C068460FF05FFA04F1D400694601F0C3F86846082100F0FAFC04F1D40630463946FE
S2240171E0B0EE408A00F0B1FE0821384600F0EEFC30EE480ADFED1C7A80EE088AB4EEE78A1C
S224017200F1EE10FA08DD626B184B33F81200002814BF2846002022E0012104F59C576160D3
S2240172202022002168460FF02DFA04F59D50FA694168BB69052AA8BF05228F1A781CC11828
S22401724091FBF3F703FB171130466B4601F0C6F8684604F10C01FFF773FFE062284609B035
S224017260BDEC028BF0BD00BFCDCCCC3D58EF06002DE9F0432DED028B1F469368556B89B02E
S2240172808046894614462BB1AF4203D017B1002090603D46002609EB060191ED000ADFED89
S2240172A0327ADFED320A20EE270A10F07DFCDFED300A10F092FC08AA93190436202E03EDF2
S2240172C0080AE8D12B4830F81510DFED2B0ADFED2B8A012918BFF0EE608A002216461346FB
S2240172E008EB020008A990ED007A881810ED081AA118B4EEC17AC868F1EE10FA98BF0133F2
S22401730028B1B4EEC17AF1EE10FA98BF01360432202AE5D1082B1DD00821404600F056FCF3
S224017320082104F1B400B0EE408A00F04FFC70EE281AB4EEE18AF1EE10FA0ADD40F2E73309
S2240173409D4206D00025012125606560A1603D4604E01EB1002525606560A560284609B00F
S224017360BDEC028BBDE8F0836666A63F000048420000F04258EF0600000048430000AA4387
S2240173802DE9F0411D468B6B0C46174603F11301142291FBF2FC02FB1C1104EB810204EB55
S2240173A083032DED028BD2F83CC0616BDD63694B33F8112084B00646DAB933F81510C1B1E3
S2240173C033F81C308B4210D1082100F0FFFB082104F19400B0EE408A00F0F8FBB4EEC08A86
S2240173E0F1EE10FA98BF002500E0154600202060606022683AB92A463046214694ED230A0F
S224017400FFF77EFE0546216839B163682BB92A4630462146FFF7C4FE0546606830B3A26B7F
S2240174201423103292FBF3F103FB11220521002304EB8200C06BA84208BF013301321420FA
S22401744092FBF0FC013900FB1C22F1D1042BD8BF00254048636B30F813203AB12B4630460A
S22401746004F194012246FFF703FF0546394931F8153033B9606B31F8102012B10A2323635B
S2240174800BE0236B002B08DD581E20632DB1A56B0E3504EB85020025556031F81510B1F5EF
S2240174A0987F01D001293DD1606B2A4A32F81030002B37D13846694601F0F2F890BB4FF038
S2240174C00F080746684601F0EFF80028C8BF0137B8F1010802D1DFB90A2703E00028F1DAB1
S2240174E0F9E720B9684601F0DFF8013FF9D1002818DD4FF019080127684601F0D5F8002814
S224017500C8BF0137B8F1010809D1023F022F09D8A56B0E3504EB850100254D6002E0002823
